:040000007CEF00F0A1
:08000800046ED8CF05F0E0CF33
:1000100006F00001E9CF0CF0EACF07F0E1CF08F0DD
:10002000E2CF09F0D9CF0AF0DACF0BF0F3CF12F01C
:10003000F4CF13F0FACF14F000C00EF001C00FF0AF
:1000400002C010F003C011F0F0A82AEF00F0F0B2E7
:100050005FEF00F00EC000F00FC001F010C002F022
:1000600011C003F00CC0E9FF07C0EAFF078E08C00B
:10007000E1FF09C0E2FF0AC0D9FF0BC0DAFF12C0DE
:10008000F3FF13C0F4FF14C0FAFF045006C0E0FFF2
:1000900005C0D8FF1000EA6A190EE96EEF500DE0B6
:1000A000060E016E006A002EFED7012EFBD77B0ED6
:1000B000006E002EFED7EF2EF3D763EF00F0F09224
:1000C0000A0E196EE8D794928B72F0922AEF00F024
:1000D0001834006E0036FC0E0016C250C30B001020
:1000E000C26EC282C2B2FED7C4CF03F0C3CF01F04A
:1000F000C4CF02F09DEF00F0F86AD09E078E176A19
:10010000166AC150C00B0F09C16E070EB46E000E07
:10011000946EFF0E926E936EC150C00B0E09C16EAD
:10012000C050C00BC06EC08EC280F188F088C00E77
:10013000F21294928B92186ACBD702C017F001C0CA
:1001400016F01750010808E2FF0A03E116500008F4
:1001500003E294908B8002D094908B90ECD70300B4
:020000040030CA
:0E00000004CC380E008781000FC00FE00F40C7
:00000001FF
;PIC18F2550
;CRC=E678  CREATED="23-Feb-20 23:55"
